{
  "contractName": "IntellectualProperty",
  "abi": [
    {
      "inputs": [],
      "stateMutability": "nonpayable",
      "type": "constructor"
    },
    {
      "anonymous": false,
      "inputs": [
        {
          "indexed": true,
          "internalType": "uint256",
          "name": "id",
          "type": "uint256"
        },
        {
          "indexed": true,
          "internalType": "address",
          "name": "previousOwner",
          "type": "address"
        },
        {
          "indexed": true,
          "internalType": "address",
          "name": "newOwner",
          "type": "address"
        }
      ],
      "name": "IPOwnershipTransferred",
      "type": "event"
    },
    {
      "anonymous": false,
      "inputs": [
        {
          "indexed": true,
          "internalType": "uint256",
          "name": "id",
          "type": "uint256"
        },
        {
          "indexed": true,
          "internalType": "address",
          "name": "owner",
          "type": "address"
        },
        {
          "indexed": false,
          "internalType": "string",
          "name": "name",
          "type": "string"
        },
        {
          "indexed": false,
          "internalType": "string",
          "name": "description",
          "type": "string"
        }
      ],
      "name": "IPRegistered",
      "type": "event"
    },
    {
      "inputs": [],
      "name": "ipRecordCount",
      "outputs": [
        {
          "internalType": "uint256",
          "name": "",
          "type": "uint256"
        }
      ],
      "stateMutability": "view",
      "type": "function",
      "constant": true
    },
    {
      "inputs": [
        {
          "internalType": "uint256",
          "name": "",
          "type": "uint256"
        }
      ],
      "name": "ipRecords",
      "outputs": [
        {
          "internalType": "address",
          "name": "owner",
          "type": "address"
        },
        {
          "internalType": "string",
          "name": "name",
          "type": "string"
        },
        {
          "internalType": "string",
          "name": "description",
          "type": "string"
        }
      ],
      "stateMutability": "view",
      "type": "function",
      "constant": true
    },
    {
      "inputs": [],
      "name": "owner",
      "outputs": [
        {
          "internalType": "address",
          "name": "",
          "type": "address"
        }
      ],
      "stateMutability": "view",
      "type": "function",
      "constant": true
    },
    {
      "inputs": [
        {
          "internalType": "string",
          "name": "_name",
          "type": "string"
        },
        {
          "internalType": "string",
          "name": "_description",
          "type": "string"
        }
      ],
      "name": "registerIP",
      "outputs": [],
      "stateMutability": "nonpayable",
      "type": "function"
    },
    {
      "inputs": [
        {
          "internalType": "uint256",
          "name": "_id",
          "type": "uint256"
        },
        {
          "internalType": "address",
          "name": "_newOwner",
          "type": "address"
        }
      ],
      "name": "transferOwnership",
      "outputs": [],
      "stateMutability": "nonpayable",
      "type": "function"
    },
    {
      "inputs": [
        {
          "internalType": "uint256",
          "name": "_id",
          "type": "uint256"
        }
      ],
      "name": "getOwner",
      "outputs": [
        {
          "internalType": "address",
          "name": "",
          "type": "address"
        }
      ],
      "stateMutability": "view",
      "type": "function",
      "constant": true
    }
  ],
  "bytecode": "0x608060405234801561001057600080fd5b50336000806101000a81548173ffffffffffffffffffffffffffffffffffffffff021916908373ffffffffffffffffffffffffffffffffffffffff160217905550610b9f806100606000396000f3fe608060405234801561001057600080fd5b50600436106100625760003560e01c806302c59bc6146100675780630f704a541461009957806329507f73146100b757806329ccb493146100d35780638da5cb5b146100ef578063c41a360a1461010d575b600080fd5b610081600480360381019061007c9190610733565b61013d565b60405161009093929190610870565b60405180910390f35b6100a1610297565b6040516100ae919061090c565b60405180910390f35b6100d160048036038101906100cc919061075c565b61029d565b005b6100ed60048036038101906100e891906106c7565b6103f5565b005b6100f761052e565b6040516101049190610855565b60405180910390f35b61012760048036038101906101229190610733565b610552565b6040516101349190610855565b60405180910390f35b60016020528060005260406000206000915090508060000160009054906101000a900473ffffffffffffffffffffffffffffffffffffffff169080600101805461018690610a22565b80601f01602080910402602001604051908101604052809291908181526020018280546101b290610a22565b80156101ff5780601f106101d4576101008083540402835291602001916101ff565b820191906000526020600020905b8154815290600101906020018083116101e257829003601f168201915b50505050509080600201805461021490610a22565b80601f016020809104026020016040519081016040528092919081815260200182805461024090610a22565b801561028d5780601f106102625761010080835404028352916020019161028d565b820191906000526020600020905b81548152906001019060200180831161027057829003601f168201915b5050505050905083565b60025481565b6001600083815260200190815260200160002060000160009054906101000a900473ffffffffffffffffffffffffffffffffffffffff1673ffffffffffffffffffffffffffffffffffffffff163373ffffffffffffffffffffffffffffffffffffffff1614610341576040517f08c379a0000000000000000000000000000000000000000000000000000000008152600401610338906108ec565b60405180910390fd5b806001600084815260200190815260200160002060000160006101000a81548173ffffffffffffffffffffffffffffffffffffffff021916908373ffffffffffffffffffffffffffffffffffffffff1602179055508073ffffffffffffffffffffffffffffffffffffffff163373ffffffffffffffffffffffffffffffffffffffff16837f0a418b75dc44c9d17649ddc3fff9ace5cd842c293bfd19adbe034b9369c06bf160405160405180910390a45050565b6002600081548092919061040890610a54565b919050555060405180606001604052803373ffffffffffffffffffffffffffffffffffffffff1681526020018381526020018281525060016000600254815260200190815260200160002060008201518160000160006101000a81548173ffffffffffffffffffffffffffffffffffffffff021916908373ffffffffffffffffffffffffffffffffffffffff16021790555060208201518160010190805190602001906104b6929190610592565b5060408201518160020190805190602001906104d3929190610592565b509050503373ffffffffffffffffffffffffffffffffffffffff166002547fe86b157adf99cb8f09b28e39f8145a2c6a2d18bf1ef7e7b6c155a3ffefc3c67a84846040516105229291906108b5565b60405180910390a35050565b60008054906101000a900473ffffffffffffffffffffffffffffffffffffffff1681565b60006001600083815260200190815260200160002060000160009054906101000a900473ffffffffffffffffffffffffffffffffffffffff169050919050565b82805461059e90610a22565b90600052602060002090601f0160209004810192826105c05760008555610607565b82601f106105d957805160ff1916838001178555610607565b82800160010185558215610607579182015b828111156106065782518255916020019190600101906105eb565b5b5090506106149190610618565b5090565b5b80821115610631576000816000905550600101610619565b5090565b600061064861064384610958565b610927565b90508281526020810184848401111561066057600080fd5b61066b8482856109e0565b509392505050565b60008135905061068281610b3b565b92915050565b600082601f83011261069957600080fd5b81356106a9848260208601610635565b91505092915050565b6000813590506106c181610b52565b92915050565b600080604083850312156106da57600080fd5b600083013567ffffffffffffffff8111156106f457600080fd5b61070085828601610688565b925050602083013567ffffffffffffffff81111561071d57600080fd5b61072985828601610688565b9150509250929050565b60006020828403121561074557600080fd5b6000610753848285016106b2565b91505092915050565b6000806040838503121561076f57600080fd5b600061077d858286016106b2565b925050602061078e85828601610673565b9150509250929050565b6107a1816109a4565b82525050565b60006107b282610988565b6107bc8185610993565b93506107cc8185602086016109ef565b6107d581610b2a565b840191505092915050565b60006107ed602483610993565b91507f4f6e6c79204950206f776e65722063616e207472616e73666572206f776e657260008301527f73686970000000000000000000000000000000000000000000000000000000006020830152604082019050919050565b61084f816109d6565b82525050565b600060208201905061086a6000830184610798565b92915050565b60006060820190506108856000830186610798565b818103602083015261089781856107a7565b905081810360408301526108ab81846107a7565b9050949350505050565b600060408201905081810360008301526108cf81856107a7565b905081810360208301526108e381846107a7565b90509392505050565b60006020820190508181036000830152610905816107e0565b9050919050565b60006020820190506109216000830184610846565b92915050565b6000604051905081810181811067ffffffffffffffff8211171561094e5761094d610afb565b5b8060405250919050565b600067ffffffffffffffff82111561097357610972610afb565b5b601f19601f8301169050602081019050919050565b600081519050919050565b600082825260208201905092915050565b60006109af826109b6565b9050919050565b600073ffffffffffffffffffffffffffffffffffffffff82169050919050565b6000819050919050565b82818337600083830152505050565b60005b83811015610a0d5780820151818401526020810190506109f2565b83811115610a1c576000848401525b50505050565b60006002820490506001821680610a3a57607f821691505b60208210811415610a4e57610a4d610acc565b5b50919050565b6000610a5f826109d6565b91507fffffffffffffffffffffffffffffffffffffffffffffffffffffffffffffffff821415610a9257610a91610a9d565b5b600182019050919050565b7f4e487b7100000000000000000000000000000000000000000000000000000000600052601160045260246000fd5b7f4e487b7100000000000000000000000000000000000000000000000000000000600052602260045260246000fd5b7f4e487b7100000000000000000000000000000000000000000000000000000000600052604160045260246000fd5b6000601f19601f8301169050919050565b610b44816109a4565b8114610b4f57600080fd5b50565b610b5b816109d6565b8114610b6657600080fd5b5056fea264697066735822122098081336c8afa76768dd8eb8494c91b3ca93b6e3c06c8dd0e857a296f49aed4b64736f6c63430008000033",
  "immutableReferences": {},
  "source": "// pragma solidity ^0.8.0;\r\n\r\n// import \"@openzeppelin/contracts/access/Ownable.sol\";\r\n// import \"@openzeppelin/contracts/utils/Strings.sol\";\r\n\r\n\r\n// contract IntellectualProperty is Ownable {\r\n//     using Strings for uint256;\r\n\r\n//     struct IPRecord {\r\n//         string name;\r\n//         string description;\r\n//         address owner;\r\n//     }\r\n\r\n//     mapping(uint256 => IPRecord) private ipRecords;\r\n//     uint256 private ipRecordCount;\r\n\r\n//     event IPRegistered(uint256 indexed id, address indexed owner, string name, string description);\r\n//     event IPOwnershipTransferred(uint256 indexed id, address indexed previousOwner, address indexed newOwner);\r\n\r\n//     constructor() Ownable(msg.sender) {} // Passing msg.sender to Ownable constructor\r\n\r\n//     function registerIP(string memory _name, string memory _description) external {\r\n//         require(bytes(_name).length > 0, \"Name must not be empty\");\r\n//         require(bytes(_description).length > 0, \"Description must not be empty\");\r\n\r\n//         ipRecordCount++;\r\n//         ipRecords[ipRecordCount] = IPRecord(_name, _description, msg.sender);\r\n//         emit IPRegistered(ipRecordCount, msg.sender, _name, _description);\r\n//     }\r\n\r\n//     function transferOwnership(uint256 _id, address _newOwner) external onlyOwnerOf(_id) {\r\n//         require(_newOwner != address(0), \"Invalid new owner address\");\r\n\r\n//         ipRecords[_id].owner = _newOwner;\r\n//         emit IPOwnershipTransferred(_id, msg.sender, _newOwner);\r\n//     }\r\n\r\n//     function getOwner(uint256 _id) external view returns (address) {\r\n//         return ipRecords[_id].owner;\r\n//     }\r\n\r\n//     function getIPRecord(uint256 _id) external view returns (string memory name, string memory description, address owner) {\r\n//         IPRecord storage record = ipRecords[_id];\r\n//         return (record.name, record.description, record.owner);\r\n//     }\r\n\r\n//     modifier onlyOwnerOf(uint256 _id) {\r\n//         require(msg.sender == ipRecords[_id].owner, \"Only IP owner can perform this action\");\r\n//         _;\r\n//     }\r\n// }\r\n// SPDX-License-Identifier: MIT\r\npragma solidity ^0.8.0;\r\n\r\ncontract IntellectualProperty {\r\n    address public owner;\r\n    \r\n    struct IPRecord {\r\n        address owner;\r\n        string name;\r\n        string description;\r\n    }\r\n    \r\n    mapping(uint256 => IPRecord) public ipRecords;\r\n    uint256 public ipRecordCount;\r\n    \r\n    event IPRegistered(uint256 indexed id, address indexed owner, string name, string description);\r\n    event IPOwnershipTransferred(uint256 indexed id, address indexed previousOwner, address indexed newOwner);\r\n    \r\n    modifier onlyOwner() {\r\n        require(msg.sender == owner, \"Only contract owner can perform this action\");\r\n        _;\r\n    }\r\n    \r\n    constructor() {\r\n        owner = msg.sender;\r\n    }\r\n    \r\n    function registerIP(string memory _name, string memory _description) external {\r\n        ipRecordCount++;\r\n        ipRecords[ipRecordCount] = IPRecord(msg.sender, _name, _description);\r\n        emit IPRegistered(ipRecordCount, msg.sender, _name, _description);\r\n    }\r\n    \r\n    function transferOwnership(uint256 _id, address _newOwner) external {\r\n        require(msg.sender == ipRecords[_id].owner, \"Only IP owner can transfer ownership\");\r\n        ipRecords[_id].owner = _newOwner;\r\n        emit IPOwnershipTransferred(_id, msg.sender, _newOwner);\r\n    }\r\n    \r\n    function getOwner(uint256 _id) external view returns (address) {\r\n        return ipRecords[_id].owner;\r\n    }\r\n}\r\n",
  "sourcePath": "C:\\Users\\HP\\Desktop\\demo\\contracts\\IntellectualProperty.sol",
  "compiler": {
    "name": "solc",
    "version": "0.8.0+commit.c7dfd78e.Emscripten.clang"
  },
  "schemaVersion": "3.4.16",
  "updatedAt": "2024-03-31T20:06:06.915Z",
  "networkType": "ethereum",
  "devdoc": {
    "kind": "dev",
    "methods": {},
    "version": 1
  },
  "userdoc": {
    "kind": "user",
    "methods": {},
    "version": 1
  }
}