{
  "contractName": "IntellectualProperty",
  "abi": [
    {
      "inputs": [],
      "stateMutability": "nonpayable",
      "type": "constructor"
    },
    {
      "anonymous": false,
      "inputs": [
        {
          "indexed": true,
          "internalType": "uint256",
          "name": "id",
          "type": "uint256"
        },
        {
          "indexed": true,
          "internalType": "address",
          "name": "previousOwner",
          "type": "address"
        },
        {
          "indexed": true,
          "internalType": "address",
          "name": "newOwner",
          "type": "address"
        }
      ],
      "name": "IPOwnershipTransferred",
      "type": "event"
    },
    {
      "anonymous": false,
      "inputs": [
        {
          "indexed": true,
          "internalType": "uint256",
          "name": "id",
          "type": "uint256"
        },
        {
          "indexed": true,
          "internalType": "address",
          "name": "owner",
          "type": "address"
        },
        {
          "indexed": false,
          "internalType": "string",
          "name": "name",
          "type": "string"
        },
        {
          "indexed": false,
          "internalType": "string",
          "name": "description",
          "type": "string"
        }
      ],
      "name": "IPRegistered",
      "type": "event"
    },
    {
      "inputs": [],
      "name": "ipRecordCount",
      "outputs": [
        {
          "internalType": "uint256",
          "name": "",
          "type": "uint256"
        }
      ],
      "stateMutability": "view",
      "type": "function",
      "constant": true
    },
    {
      "inputs": [
        {
          "internalType": "uint256",
          "name": "",
          "type": "uint256"
        }
      ],
      "name": "ipRecords",
      "outputs": [
        {
          "internalType": "address",
          "name": "owner",
          "type": "address"
        },
        {
          "internalType": "string",
          "name": "name",
          "type": "string"
        },
        {
          "internalType": "string",
          "name": "description",
          "type": "string"
        }
      ],
      "stateMutability": "view",
      "type": "function",
      "constant": true
    },
    {
      "inputs": [],
      "name": "owner",
      "outputs": [
        {
          "internalType": "address",
          "name": "",
          "type": "address"
        }
      ],
      "stateMutability": "view",
      "type": "function",
      "constant": true
    },
    {
      "inputs": [
        {
          "internalType": "string",
          "name": "_name",
          "type": "string"
        },
        {
          "internalType": "string",
          "name": "_description",
          "type": "string"
        }
      ],
      "name": "registerIP",
      "outputs": [],
      "stateMutability": "nonpayable",
      "type": "function"
    },
    {
      "inputs": [
        {
          "internalType": "uint256",
          "name": "_id",
          "type": "uint256"
        },
        {
          "internalType": "address",
          "name": "_newOwner",
          "type": "address"
        }
      ],
      "name": "transferOwnership",
      "outputs": [],
      "stateMutability": "nonpayable",
      "type": "function"
    },
    {
      "inputs": [
        {
          "internalType": "uint256",
          "name": "_id",
          "type": "uint256"
        }
      ],
      "name": "getOwner",
      "outputs": [
        {
          "internalType": "address",
          "name": "",
          "type": "address"
        }
      ],
      "stateMutability": "view",
      "type": "function",
      "constant": true
    }
  ],
  "bytecode": "0x608060405234801561001057600080fd5b50336000806101000a81548173ffffffffffffffffffffffffffffffffffffffff021916908373ffffffffffffffffffffffffffffffffffffffff160217905550610bb9806100606000396000f3fe608060405234801561001057600080fd5b50600436106100625760003560e01c806302c59bc6146100675780630f704a541461009957806329507f73146100b757806329ccb493146100d35780638da5cb5b146100ef578063c41a360a1461010d575b600080fd5b610081600480360381019061007c91906107ac565b61013d565b60405161009093929190610916565b60405180910390f35b6100a1610297565b6040516100ae91906109b6565b60405180910390f35b6100d160048036038101906100cc91906107d5565b61029d565b005b6100ed60048036038101906100e89190610737565b6103f5565b005b6100f76105bc565b60405161010491906108fb565b60405180910390f35b610127600480360381019061012291906107ac565b6105e0565b60405161013491906108fb565b60405180910390f35b60016020528060005260406000206000915090508060000160009054906101000a900473ffffffffffffffffffffffffffffffffffffffff169080600101805461018690610a6b565b80601f01602080910402602001604051908101604052809291908181526020018280546101b290610a6b565b80156101ff5780601f106101d4576101008083540402835291602001916101ff565b820191906000526020600020905b8154815290600101906020018083116101e257829003601f168201915b50505050509080600201805461021490610a6b565b80601f016020809104026020016040519081016040528092919081815260200182805461024090610a6b565b801561028d5780601f106102625761010080835404028352916020019161028d565b820191906000526020600020905b81548152906001019060200180831161027057829003601f168201915b5050505050905083565b60025481565b6001600083815260200190815260200160002060000160009054906101000a900473ffffffffffffffffffffffffffffffffffffffff1673ffffffffffffffffffffffffffffffffffffffff163373ffffffffffffffffffffffffffffffffffffffff1614610341576040517f08c379a000000000000000000000000000000000000000000000000000000000815260040161033890610996565b60405180910390fd5b806001600084815260200190815260200160002060000160006101000a81548173ffffffffffffffffffffffffffffffffffffffff021916908373ffffffffffffffffffffffffffffffffffffffff1602179055508073ffffffffffffffffffffffffffffffffffffffff163373ffffffffffffffffffffffffffffffffffffffff16837f0a418b75dc44c9d17649ddc3fff9ace5cd842c293bfd19adbe034b9369c06bf160405160405180910390a45050565b6002600081548092919061040890610a9d565b919050555060405180606001604052803373ffffffffffffffffffffffffffffffffffffffff16815260200185858080601f016020809104026020016040519081016040528093929190818152602001838380828437600081840152601f19601f82011690508083019250505050505050815260200183838080601f016020809104026020016040519081016040528093929190818152602001838380828437600081840152601f19601f8201169050808301925050505050505081525060016000600254815260200190815260200160002060008201518160000160006101000a81548173ffffffffffffffffffffffffffffffffffffffff021916908373ffffffffffffffffffffffffffffffffffffffff160217905550602082015181600101908051906020019061053e929190610620565b50604082015181600201908051906020019061055b929190610620565b509050503373ffffffffffffffffffffffffffffffffffffffff166002547fe86b157adf99cb8f09b28e39f8145a2c6a2d18bf1ef7e7b6c155a3ffefc3c67a868686866040516105ae949392919061095b565b60405180910390a350505050565b60008054906101000a900473ffffffffffffffffffffffffffffffffffffffff1681565b60006001600083815260200190815260200160002060000160009054906101000a900473ffffffffffffffffffffffffffffffffffffffff169050919050565b82805461062c90610a6b565b90600052602060002090601f01602090048101928261064e5760008555610695565b82601f1061066757805160ff1916838001178555610695565b82800160010185558215610695579182015b82811115610694578251825591602001919060010190610679565b5b5090506106a291906106a6565b5090565b5b808211156106bf5760008160009055506001016106a7565b5090565b6000813590506106d281610b55565b92915050565b60008083601f8401126106ea57600080fd5b8235905067ffffffffffffffff81111561070357600080fd5b60208301915083600182028301111561071b57600080fd5b9250929050565b60008135905061073181610b6c565b92915050565b6000806000806040858703121561074d57600080fd5b600085013567ffffffffffffffff81111561076757600080fd5b610773878288016106d8565b9450945050602085013567ffffffffffffffff81111561079257600080fd5b61079e878288016106d8565b925092505092959194509250565b6000602082840312156107be57600080fd5b60006107cc84828501610722565b91505092915050565b600080604083850312156107e857600080fd5b60006107f685828601610722565b9250506020610807858286016106c3565b9150509250929050565b61081a816109ed565b82525050565b600061082c83856109dc565b9350610839838584610a29565b61084283610b44565b840190509392505050565b6000610858826109d1565b61086281856109dc565b9350610872818560208601610a38565b61087b81610b44565b840191505092915050565b60006108936024836109dc565b91507f4f6e6c79204950206f776e65722063616e207472616e73666572206f776e657260008301527f73686970000000000000000000000000000000000000000000000000000000006020830152604082019050919050565b6108f581610a1f565b82525050565b60006020820190506109106000830184610811565b92915050565b600060608201905061092b6000830186610811565b818103602083015261093d818561084d565b90508181036040830152610951818461084d565b9050949350505050565b60006040820190508181036000830152610976818688610820565b9050818103602083015261098b818486610820565b905095945050505050565b600060208201905081810360008301526109af81610886565b9050919050565b60006020820190506109cb60008301846108ec565b92915050565b600081519050919050565b600082825260208201905092915050565b60006109f8826109ff565b9050919050565b600073ffffffffffffffffffffffffffffffffffffffff82169050919050565b6000819050919050565b82818337600083830152505050565b60005b83811015610a56578082015181840152602081019050610a3b565b83811115610a65576000848401525b50505050565b60006002820490506001821680610a8357607f821691505b60208210811415610a9757610a96610b15565b5b50919050565b6000610aa882610a1f565b91507fffffffffffffffffffffffffffffffffffffffffffffffffffffffffffffffff821415610adb57610ada610ae6565b5b600182019050919050565b7f4e487b7100000000000000000000000000000000000000000000000000000000600052601160045260246000fd5b7f4e487b7100000000000000000000000000000000000000000000000000000000600052602260045260246000fd5b6000601f19601f8301169050919050565b610b5e816109ed565b8114610b6957600080fd5b50565b610b7581610a1f565b8114610b8057600080fd5b5056fea26469706673582212202c092a395a60ecbc23c17e78112b14b451a88ce8f0bd6bbf6c1e61ee5497b70964736f6c63430008000033",
  "immutableReferences": {},
  "source": "// SPDX-License-Identifier: MIT\r\n\r\npragma solidity ^0.8.0;\r\n// //import \"truffle/console.sol\";\r\n\r\n// contract IntellectualProperty {\r\n//     address public owner;\r\n    \r\n//     struct IPRecord {\r\n//         address owner;\r\n//         string name;\r\n//         string description;\r\n//     }\r\n    \r\n//     mapping(uint256 => IPRecord) public ipRecords;\r\n//     uint256 public ipRecordCount;\r\n    \r\n//     event IPRegistered(uint256 indexed id, address indexed owner, string name, string description);\r\n//     event IPOwnershipTransferred(uint256 indexed id, address indexed previousOwner, address indexed newOwner);\r\n    \r\n//     modifier onlyOwner() {\r\n//         require(msg.sender == owner, \"Only contract owner can perform this action\");\r\n//         _;\r\n//     }\r\n    \r\n//     constructor() {\r\n//         owner = msg.sender;\r\n//     }\r\n    \r\n//     function registerIP(string memory _name, string memory _description) external {\r\n//         ipRecordCount++;\r\n//         ipRecords[ipRecordCount] = IPRecord(msg.sender, _name, _description);\r\n//         emit IPRegistered(ipRecordCount, msg.sender, _name, _description);\r\n//     }\r\n    \r\n//     function transferOwnership(uint256 _id, address _newOwner) external {\r\n//         require(msg.sender == ipRecords[_id].owner, \"Only IP owner can transfer ownership\");\r\n//         ipRecords[_id].owner = _newOwner;\r\n//         emit IPOwnershipTransferred(_id, msg.sender, _newOwner);\r\n//     }\r\n    \r\n//     function getOwner(uint256 _id) external view returns (address) {\r\n//         return ipRecords[_id].owner;\r\n//     }\r\n// }\r\n\r\n\r\ncontract IntellectualProperty {\r\n    address public owner;\r\n    \r\n    struct IPRecord {\r\n        address owner;\r\n        string name;\r\n        string description;\r\n    }\r\n    \r\n    mapping(uint256 => IPRecord) public ipRecords;\r\n    uint256 public ipRecordCount;\r\n    \r\n    event IPRegistered(uint256 indexed id, address indexed owner, string name, string description);\r\n    event IPOwnershipTransferred(uint256 indexed id, address indexed previousOwner, address indexed newOwner);\r\n    \r\n    // modifier onlyOwner() {\r\n    //     require(msg.sender == owner, \"Only contract owner can perform this action\");\r\n    //     _;\r\n    // }\r\n    \r\n    constructor() {\r\n        owner = msg.sender;\r\n    }\r\n    \r\n    function registerIP(string calldata _name, string calldata _description) external {\r\n        ipRecordCount++;\r\n        ipRecords[ipRecordCount] = IPRecord(msg.sender, _name, _description);\r\n        emit IPRegistered(ipRecordCount, msg.sender, _name, _description);\r\n    }\r\n    \r\n    function transferOwnership(uint256 _id, address _newOwner) external {\r\n        require(msg.sender == ipRecords[_id].owner, \"Only IP owner can transfer ownership\");\r\n        ipRecords[_id].owner = _newOwner;\r\n        emit IPOwnershipTransferred(_id, msg.sender, _newOwner);\r\n    }\r\n    \r\n    function getOwner(uint256 _id) external view returns (address) {\r\n        return ipRecords[_id].owner;\r\n    }\r\n}\r\n\r\n// contract IntellectualProperty {\r\n//     address public owner;\r\n    \r\n//     struct IPRecord {\r\n//         address owner;\r\n//         string name;\r\n//         string description;\r\n//     }\r\n    \r\n//     mapping(uint256 => IPRecord) public ipRecords;\r\n//     uint256 public ipRecordCount;\r\n    \r\n//     event IPRegistered(uint256 indexed id, address indexed owner, string name, string description);\r\n//     event IPOwnershipTransferred(uint256 indexed id, address indexed previousOwner, address indexed newOwner);\r\n    \r\n//     modifier onlyOwner() {\r\n//         require(msg.sender == owner, \"Only contract owner can perform this action\");\r\n//         _;\r\n//     }\r\n    \r\n//     constructor() {\r\n//         owner = msg.sender;\r\n//     }\r\n    \r\n//     function registerIP(string memory _name, string memory _description) external {\r\n//         require(bytes(_name).length > 0 && bytes(_description).length > 0, \"Name and description must not be empty\");\r\n        \r\n//         ipRecordCount++;\r\n//         ipRecords[ipRecordCount] = IPRecord(msg.sender, _name, _description);\r\n//         emit IPRegistered(ipRecordCount, msg.sender, _name, _description);\r\n//     }\r\n    \r\n//     function transferOwnership(uint256 _id, address _newOwner) external {\r\n//         require(msg.sender == ipRecords[_id].owner, \"Only IP owner can transfer ownership\");\r\n//         ipRecords[_id].owner = _newOwner;\r\n//         emit IPOwnershipTransferred(_id, msg.sender, _newOwner);\r\n//     }\r\n    \r\n//     function getOwner(uint256 _id) external view returns (address) {\r\n//         return ipRecords[_id].owner;\r\n//     }\r\n// }\r\n\r\n\r\n",
  "sourcePath": "C:\\Users\\HP\\Desktop\\Intellectual Property Management\\contracts\\IntellectualProperty.sol",
  "compiler": {
    "name": "solc",
    "version": "0.8.0+commit.c7dfd78e.Emscripten.clang"
  },
  "schemaVersion": "3.4.16",
  "updatedAt": "2024-04-29T15:11:17.459Z",
  "networkType": "ethereum",
  "devdoc": {
    "kind": "dev",
    "methods": {},
    "version": 1
  },
  "userdoc": {
    "kind": "user",
    "methods": {},
    "version": 1
  }
}